:1000000035C04DC0DDC04BC04AC049C048C047C024
:1000100046C045C046C143C042C041C040C0456E15
:10002000633242746E2863293230313650696F74FE
:10003000725A6170617274000204000300011003BF
:10004000020000030201000600040006050020066D
:100050000504000302010023000100130200000355
:1000600005040003030410030503200011241FBE30
:10007000CFEDCDBF10E0A0E6B0E0E4EFF2E002C0CB
:1000800005900D92A236B107D9F720E0A2E6B0E0C4
:1000900001C01D92A037B207E1F71BD129C1B0CF33
:1000A00087B3836087BB88B3876088BB8AB582606B
:1000B0008ABD83B7836083BF8CE789BD89B78061C0
:1000C00089BF62D02FE088E190E00FB6F894A89540
:1000D00081BD0FBE21BD089590936400809363009D
:1000E00008952FB7F89480916C0090916D002FBF08
:1000F00008952FB7F89490936D0080936C002FBFF4
:10010000089596B393FF02C022E001C020E094FB63
:10011000882780F9822B92FB992790F990936B00A6
:1001200020916B00992787FD9095E0916200EF7018
:10013000F0E0EE0FFF1FEE0FFF1FE80FF91F211178
:1001400003C0ED5AFF4F02C0E95CFF4FE491E0931A
:100150006200809162008073B1F080936F00803202
:1001600031F480916C0090916D00019605C08091F2
:100170006C0090916D00019790936D0080936C00DE
:1001800081E080936E00089587B3877E87BB88B334
:10019000886188BBB6DF8BB780628BBF85B388610F
:1001A00085BB089580916E00882349F0E09163003B
:1001B000F0916400309709F0099510926E0008954F
:1001C0001F920F920FB60F9211242F933F934F93CC
:1001D0005F936F937F938F939F93AF93BF93EF93AF
:1001E000FF938FDFFF91EF91BF91AF919F918F911F
:1001F0007F916F915F914F913F912F910F900FBE23
:100200000F901F90189580916F00803229F4809193
:100210006A008F5F80936A0080916F00803129F4BB
:10022000809168008F5F8093680008952091690035
:1002300090916A0080916000291799F09091660072
:100240008695891710F4C09801C0C09A8091660005
:10025000811109C0809169008F5F8093690080914E
:100260006000809366002091670090916800809103
:100270006000291799F0909165008695891710F410
:10028000C19801C0C19A80916500811109C0809117
:1002900067008F5F809367008091600080936500A6
:1002A00008951F920F920FB60F9211248F93809191
:1002B00066008111815080936600809165008111F4
:1002C0008150809365008F910F900FBE0F901F900B
:1002D000189583E091E000DFE3DE80E090E009DF45
:1002E0008FE3809360007894A8955CDF9FDFFCCF5C
:0402F000F894FFCFB0
:0202F4003F00C9
:00000001FF
